:100000000C949E040C94C6040C94C6040C94C60470
:100010000C94C6040C94C6040C94C6040C94C60438
:100020000C94C6040C94C6040C94C6040C94C60428
:100030000C94C6040C94C6040C94C6040C94C60418
:100040000C94DC060C94C6040C94C6040C94C604F0
:100050000C94C6040C94C6040C94C6040C94C604F8
:100060000C942A070C94C6042D19301933193A1927
:10007000411948194F1900000000230026002900EB
:100080000000000800020100000304070000000057
:100090000000000000000000240027002A000000EB
:1000A0000000000000000000000000000000000050
:1000B000000000000000C0F0783818181818183830
:1000C000303060E0C0808080C0C060703038181868
:1000D0001818181878F0E000000000000000000078
:1000E0000000000000000000000000000000000010
:1000F0000000000000000000000000000000000000
:1001000000000000000000000000BFFFE080C0C051
:10011000C0C0C0C0C0E0F0FCDCC7C7C7CFDCF0F097
:10012000E0C0C0C0C0C0C0C0F0FFFF0000000000C1
:1001300000000000000000000000000000000000BF
:1001400000000000000000000000000000000000AF
:1001500000000000F0F81C0C0C060603030301016C
:100160000F1FFCF0F83C0F070100E0F0F8F8F8F87A
:10017000F8F8E0C00003071EBCF8F8FE0F03010307
:1001800003030706060C0CF8F0C000000000000096
:10019000000000000000000000000000000000005F
:1001A00000000000000000000103060E0C181838C3
:1001B0003030B0F0FE7F6F6147CFFCF8E0C0C0C3C5
:1001C000C3C7C7C7C7C3C1C0E0F8F8CFC763676F6D
:1001D000FCF0F030303818180C0E0E070300000049
:1001E000000000000000000000000000000000000F
:1001F00000000000000000000000000000000000FF
:10020000000000000000FFFF800000000000000070
:10021000008183C7EE7C38386CEEC3838100000018
:1002200000000000C1FFFF0000000000000000000F
:1002300000000000000000000000000000000000BE
:1002400000000000000000000000000000000000AE
:100250000000000000000000000000010307060687
:100260000606070303010100000000000000010171
:10027000030307060606060703010100000000004D
:10028000000000000000000000000000000000006E
:100290000000000000000C102D0D00000080808088
:1002A00080808000000000000103030303030301BA
:1002B000000000000000000000000000000000003E
:1002C000000000C0C000000000000000028686861A
:1002D000868686020000000081C3C3C3C3C3C381F6
:1002E000000000FC7A0606060606067AFC00007E80
:1002F000BCC0C0C0C0C0C0BC7E0000000000000088
:1003000000000078FC000000000000000000003C3D
:100310007E000000028686868686867AFC00007E45
:10032000BDC3C3C3C3C3C381000000000286868669
:100330008686867AFC00000081C3C3C3C3C3C3BDE5
:100340007E0000FC7880808080808078FC00000047
:10035000010303030303033D7E0000FC7A868686C7
:10036000868686020000000081C3C3C3C3C3C3BD29
:100370007E0000FC7A868686868686020000007EE5
:10038000BDC3C3C3C3C3C3BD7E00000002060606CF
:100390000606067AFC000000000000000000003C99
:1003A0007E0000FC7A8686868686867AFC00007E41
:1003B000BDC3C3C3C3C3C3BD7E0000FC7A868686AB
:1003C0008686867AFC00000081C3C3C3C3C3C3BD55
:1003D0007E000608205F0000000000000000002FE3
:1003E000000000000700070000147F147F140024A1
:1003F0002A7F2A12002313086462003649552250CE
:1004000000000503000000001C2241000000412202
:100410001C000014083E08140008083E08080000EC
:1004200000A06000000808080808000060600000E4
:10043000002010080402003E5149453E0000427F62
:100440004000004261514946002141454B310018AE
:1004500014127F10002745454539003C4A49493070
:10046000000171090503003649494936000649492A
:10047000291E000036360000000056360000000835
:100480001422410000141414141400004122140812
:1004900000020151090600324959513E007C1211F7
:1004A000127C007F49494936003E41414122007F8C
:1004B0004141221C007F49494941007F0909090146
:1004C000003E4149497A007F0808087F0000417FCB
:1004D0004100002040413F01007F08142241007F7D
:1004E00040404040007F020C027F007F0408107FE4
:1004F000003E4141413E007F09090906003E41514D
:10050000215E007F09192946004649494931000109
:10051000017F0101003F4040403F001F2040201F5D
:10052000003F4038403F0063140814630007087020
:10053000080700615149454300007F414100AA5529
:10054000AA55AA55000041417F000004020102049F
:10055000004040404040000003050000002054548B
:100560005478007F484444380038444444200038DC
:100570004444487F00385454541800087E0901024E
:100580000018A4A4A47C007F080404780000447D23
:100590004000004080847D00007F1028440000005F
:1005A000417F4000007C04180478007C0804047833
:1005B00000384444443800FC24242418001824241F
:1005C00018FC007C0804040800485454542000041B
:1005D0003F444020003C4040207C001C2040201C28
:1005E000003C4030403C004428102844001CA0A09F
:1005F000A07C004464544C440000107C8200000045
:1006000000FF00000000827C1000000006090906BF
:10061000008080800418188080C6DCD8C080B81C98
:1006200000C0C0C040000000416161200E1F3B615E
:1006300060606021330F80881818100000000000EF
:100640000000040F070000000E1C00000050A88CE2
:1006500082020201010201838181427C30D884043C
:1006600004040206020602C65C300000000001011C
:10067000013169858584860206828286673F310161
:100680000202010101000000000000000000000063
:10069000000000000001010608205F0000000000CB
:1006A000000000002F000000000700070000147F7A
:1006B000147F1400242A7F2A120023130864620086
:1006C000003636000000000503000000001C224137
:1006D00000000041221C000014083E081400080815
:1006E0003E0808003E49454538000808080808004B
:1006F0007C10384438002010080402003E5149455F
:100700003E0000427F4000004261514946002141C5
:10071000454B31001814127F10002745454539001C
:100720003C4A4949300001710905030036494949ED
:100730003600064949291E00730C7F0C73004C30AB
:100740007C304C007F4949493100141414141400C2
:100750007F083E413E0002015109060032495951CD
:100760003E001C227F221C007F1008047F003E41B7
:10077000414122007F49494936006126180601009F
:100780007C1211127C007F0101017F007F090909A1
:1007900006007F407F407F003E4141413E00403F98
:1007A00001017F00603F213F60007F48483000002A
:1007B00003017F0103003F203F207F002141494D7D
:1007C00033007E2011087E007F08142241007F48FC
:1007D00078007F007F49494941007F010101030002
:1007E0007F0608067F003F20203F600007080808BA
:1007F0007F007F0808087F00661909097F004428E8
:10080000102844AA55AA55AA5500047C507000002F
:10081000040201020400404040404000444454545B
:10082000380018247E2418007C20107C00003844F6
:10083000444428007C54542800004C9090907C0044
:100840002054545478007C04047C0000FC242424AC
:1008500018007C407C407C00384444443800403CD4
:1008600004047C00384545493E007C50700000007F
:1008700004047C0404003C203C207C0024424A34D4
:1008800000007C21117C00007C10284400007C507A
:1008900070007C003854545418007C04040C000090
:1008A0007C0810087C003C20203C60001C10107C60
:1008B00000007C10107C00004834147C000063149D
:1008C000081463000000FF000000017F484830006A
:1008D0004149492A1C0000C0C0F8FCFEFEFEFEFC97
:1008E000FCFCFEFCFCF8F8D0C000000103C7E77771
:1008F0000707C7E7770707C7E77707030350000035
:100900000000086C7E2000010204081020408001D5
:100910000204081020010204081020000000002535
:100920000028002B0004040404040404040202024E
:10093000020202030303030303005D1911241FBE17
:10094000CFEFD8E0DEBFCDBF11E0A0E0B1E0EAEF2D
:10095000FEE302C005900D92AC34B107D9F724E054
:10096000ACE4B1E001C01D92A939B207E1F714E08F
:10097000CEE9D4E004C02197FE010E940E1ECD39BD
:10098000D107C9F70E946C100C947B1F0C940000D7
:1009900008950895CF92DF92EF92FF920F931F93E5
:1009A000CF93DF936C017A018B01C0E0D0E0CE15CC
:1009B000DF0581F0D8016D918D01D601ED91FC919B
:1009C0000190F081E02DC6010995892B11F0219647
:1009D000EECF7E01C701DF91CF911F910F91FF9064
:1009E000EF90DF90CF900895833081F028F481302C
:1009F00099F08230A1F008958730A9F08830B9F0DD
:100A00008430D1F4809180008F7D03C0809180007C
:100A10008F7780938000089584B58F7702C084B566
:100A20008F7D84BD08958091B0008F7703C0809141
:100A3000B0008F7D8093B00008953FB7F894809107
:100A4000940190919501A0919601B091970126B5DE
:100A5000A89B05C02F3F19F00196A11DB11D3FBFF6
:100A6000BA2FA92F982F8827820F911DA11DB11D84
:100A7000BC01CD0142E0660F771F881F991F4A9580
:100A8000D1F708958F929F92AF92BF92CF92DF924B
:100A9000EF92FF926B017C010E941D054B015C01EE
:100AA000C114D104E104F104F1F00E941D05DC0140
:100AB000CB0188199909AA09BB09883E9340A10571
:100AC000B10570F321E0C21AD108E108F10888EEFF
:100AD000880E83E0981EA11CB11CC114D104E1044E
:100AE000F10419F7DDCFFF90EF90DF90CF90BF902A
:100AF000AF909F908F90089585ED8093BC0080917A
:100B0000BC0084FDFCCF1092FF01089540916C0160
:100B1000262F30E0240F311D21323105DCF42091E5
:100B2000FF012430C9F4FC0180E090E0861758F4FE
:100B300030916C012191DC01A45BBE4FA30FB11D6C
:100B40002C930196F3CF80916C01680F60936C0138
:100B500080E0089581E0089582E008950895E0918D
:100B6000B8018091B701E81730F4F0E0E754FE4F88
:100B7000808190E008958FEF9FEF08959091B801E4
:100B80008091B701981750F4E92FF0E0E754FE4F39
:100B9000208130E09F5F9093B80102C02FEF3FEFBC
:100BA000C90108958091B70190E02091B801821B9E
:100BB00091090895CF92DF92EF92FF920F931F93C6
:100BC000CF93DF937C01CB018A0120910002222385
:100BD00089F0EB016B01C40ED51ECC15DD0569F063
:100BE0006991D701ED91FC910190F081E02DC70151
:100BF0000995F3CF642F0E948605C801DF91CF913C
:100C00001F910F91FF90EF90DF90CF900895CF93B9
:100C1000DF931F92CDB7DEB76983209100022223B4
:100C2000D1F020912302203240F021E030E0FC019D
:100C30003383228380E090E015C080910102E82F89
:100C4000F0E0EE5FFD4F998190838F5F809301020A
:100C50008093230205C061E0CE0101960E948605C3
:100C600081E090E00F90DF91CF910895089580E0AA
:100C700090E008950E94761FCF93DF93282F30E0F5
:100C8000F901E058FF4F8491F901E95FF64FD491E3
:100C9000F901EB5DF64FC491CC2391F081110E94D4
:100CA000F404EC2FF0E0EE0FFF1FEA58FF4FA59180
:100CB000B491EC91ED2381E090E021F480E002C05A
:100CC00080E090E0DF91CF9108951F93CF93DF9361
:100CD000282F30E0F901E058FF4F8491F901E95FD6
:100CE000F64FD491F901EB5DF64FC491CC23C1F0DE
:100CF000162F81110E94F404EC2FF0E0EE0FFF1F7D
:100D0000E55EF64FA591B4919FB7F894111104C018
:100D10008C91D095D82302C0EC91DE2BDC939FBF41
:100D2000DF91CF911F910895CF93DF9390E0FC0165
:100D3000E95FF64F2491FC01EB5DF64F8491882327
:100D400061F190E0880F991FFC01EC56FF4FC591AF
:100D5000D491FC01E55EF64FA591B491611109C0F3
:100D60009FB7F8948881209582238883EC912E2365
:100D70000BC0623061F49FB7F8948881322F3095B0
:100D800083238883EC912E2B2C939FBF06C08FB7B3
:100D9000F894E8812E2B28838FBFDF91CF9108959F
:100DA0002FB7F89460919001709191018091920118
:100DB000909193012FBF08951F920F920FB60F923B
:100DC00011242F933F938F939F93AF93BF93809161
:100DD000900190919101A0919201B0919301309175
:100DE0008F0123E0230F2D3720F40196A11DB11DA3
:100DF00005C026E8230F0296A11DB11D20938F0187
:100E00008093900190939101A0939201B0939301EC
:100E10008091940190919501A0919601B0919701D4
:100E20000196A11DB11D8093940190939501A0930B
:100E30009601B0939701BF91AF919F918F913F9190
:100E40002F910F900FBE0F901F90189508958CBD95
:100E50009DBD08951F920F920FB60F9211242F93EC
:100E60003F934F935F936F937F938F939F93AF9332
:100E7000BF93EF93FF938091B900887F803609F488
:100E80009CC068F5883209F45BC090F4803109F4A5
:100E900054C038F4882309F4F6C0883009F44DC0F2
:100EA000F6C0883109F44CC0803209F45DC0EFC04F
:100EB000803409F468C048F4803309F455C088339D
:100EC00009F0E5C08093FD01D8C0803509F44FC01A
:100ED000883509F45DC0883409F0D9C0D6C0883996
:100EE00009F4C7C0A8F4883709F467C038F4883615
:100EF00009F463C0803709F460C0C9C0883809F4B8
:100F0000B8C0803909F45FC0803809F0C0C05BC048
:100F1000803B09F486C038F4803A09F466C0883A08
:100F200009F47FC0B4C0803C09F4A7C0883C09F430
:100F3000A4C0883B09F48AC0AAC08091DA0110C01D
:100F40009091FC018091FB01981770F5E091FC01F4
:100F500081E08E0F8093FC01F0E0E552FE4F80812E
:100F60008093BB0085EC86C08093FD018EC0E0912C
:100F7000FC0181E08E0F8093FC018091BB00F0E0CA
:100F8000E552FE4F80839091FC018091FB016EC081
:100F9000E091FC0181E08E0F8093FC018091BB0009
:100FA000F0E0E552FE4F80838091FE0181116DC01B
:100FB00081E08093D90184EA61C083E08093FF01DE
:100FC00010928E01CFCF80918E01803208F051C0F7
:100FD000E0918E0181E08E0F80938E018091BB00A5
:100FE000F0E0E259FE4F8083BDCF85EC8093BC00DA
:100FF0001092FF0180918E01803230F4E0918E01D9
:10100000F0E0E259FE4F108260918E0170E0E091B5
:101010009901F0919A018EE691E0099510928E0166
:1010200036C084E08093FF0110926D0110926C0134
:10103000E0919B01F0919C01099580916C018111D7
:1010400005C081E080936C0110924C01E0916D012C
:1010500081E08E0F80936D01F0E0E45BFE4F8081B4
:101060008093BB0090916D0180916C01981708F4FA
:1010700079CF85E88093BC000AC085EC8093BC00E2
:101080001092FF0104C01092FD010E947C05FF91A7
:10109000EF91BF91AF919F918F917F916F915F91F0
:1010A0004F913F912F910F900FBE0F901F90189569
:1010B000EF92FF920F931F93CF93DF93909157027C
:1010C0009F3F39F48EBD00000DB407FEFDCF8EB5F5
:1010D00028C0D82FC0E007E010E0EE24E394F12C04
:1010E000CC0F60E0809157020E946506B701002E88
:1010F00001C0660F0A94EAF76D23809155020E94A1
:10110000650661E0809157020E9465068091560253
:101110000E943C06892B09F0C1600150110900F7BB
:101120008C2FDF91CF911F910F91FF90EF90089539
:1011300030912302313208F04BC08091FF018111C0
:10114000FCCF9091220222E02093FF0121E0209326
:10115000FE012FEF2093FD011092FC013093FB0163
:10116000E2E0F2E0ABEDB1E020E0321721F0419196
:101170004D932F5FFACF1092DA012091DA01990F87
:10118000922B9093DA019091D901913061F41092F1
:10119000D9019091DA019093BB009091BC0093FD2E
:1011A000F8CF95EC01C095EE9093BC009091FF01B3
:1011B0009230E1F39091FD019F3F79F08091FD0124
:1011C000803241F08091FD01803331F084E005C030
:1011D00081E003C082E001C083E01092010210921E
:1011E0002302109200020895CF93DF93D82FC62FC9
:1011F000809154028F3F59F580914B0291E090937A
:101200000002809322021092010210922302809128
:10121000490290914A02DC01ED91FC910190F0812C
:10122000E02D6D2F09958091490290914A02DC01D1
:10123000ED91FC910190F081E02D6C2F099580914A
:10124000490290914A02DF91CF910C9498088091C5
:1012500057028F3F21F482E591E00E94270760E06A
:10126000809154020E9465068D2F8F770E94580846
:101270008C2F0E94580861E0809154020E946506FC
:10128000809157028F3F21F4DF91CF910C94260774
:10129000DF91CF9108958091FF018111FCCF413200
:1012A00008F040E281E08093FF018093FE019FEF10
:1012B0009093FD011092FC01940F9093FB01809399
:1012C000DA018091DA01660F682B6093DA01809170
:1012D000D901813061F41092D9018091DA018093B3
:1012E000BB008091BC0083FDF8CF85EC01C085EE8A
:1012F0008093BC008091FF018130E1F38091FC017B
:10130000841710F44091FC01EBEDF1E0A9EBB1E0A2
:1013100080E0841721F091919D938F5FFACF109216
:10132000B8018093B7010895CF93C82F80915402DC
:101330008F3F99F580914B0291E09093000280934A
:101340002202109201021092230280914902909190
:101350004A02DC01ED91FC910190F081E02D6C2FAF
:1013600009958091490290914A020E94980841E0B3
:1013700060914B028091490290914A020E944B0970
:101380008091490290914A02DC01ED91FC91028426
:10139000F385E02D0995C82F20C0809157028F3F1B
:1013A00021F482E591E00E94270760E080915402D9
:1013B0000E9465068C2F80680E94580880E00E9479
:1013C0005808C82F61E0809154020E946506809100
:1013D00057028F3F11F40E9426078C2FCF9108955A
:1013E000CF93DF93C82F809154028F3F09F044C000
:1013F00080914B0291E09093000280932202109220
:101400000102109223028091490290914A02DC016C
:10141000ED91FC910190F081E02D6C2F0995809168
:10142000490290914A020E94980842E060914B0262
:101430008091490290914A020E944B098091490291
:1014400090914A02DC01ED91FC910284F385E02D3C
:101450000995C82F8091490290914A02DC01ED91D3
:10146000FC910284F385E02D099520E030E03C2FCB
:10147000E901C82BD92B29C0809157028F3F21F455
:1014800082E591E00E94270760E0809154020E946B
:1014900065068C2F80680E94580880E00E945808DA
:1014A000C82F80E00E9458082C2F30E0322F2227CE
:1014B000E901C82B61E0809154020E946506809189
:1014C00057028F3F11F40E942607CE01DF91CF9182
:1014D00008950E94F00998278927982708959091E8
:1014E0009402E0918E02F0918F02208190959223D8
:1014F0009083E0918A02F0918B02611108C0909173
:101500009202208190959223908398E005C02091CB
:1015100092029081922BF8CFE0918802F09189029B
:1015200087FF05C0309191022081232B05C02091B7
:1015300091023081209523232083880F20919002EF
:10154000E0918602F0918702308120952323208349
:10155000000030919002E0918602F0918702208194
:10156000232B20839150C1F690919402E0918E023A
:10157000F0918F028081892B8083089584359105B5
:1015800000F560337105E8F49B0143E0369527953B
:101590004A95E1F744E5429FF001439FF00D112485
:1015A0008E0F9F1FFC01EA57FD4F6770772781E080
:1015B00090E001C0880F6A95EAF78095908D8923A5
:1015C000808F089584359105F8F460337105E0F457
:1015D0009B0143E0369527954A95E1F744E5429F04
:1015E000F001439FF00D11248E0F9F1FFC01EA575D
:1015F000FD4F6770772781E090E001C0880F6A9502
:10160000EAF7908D892B808F0895CF93DF93809197
:101610009604811112C060E080E40E946F0A60E0CD
:1016200080E80E946F0ACEE9D2E061E089910E94D1
:101630006F0A84E0C639D807C1F7DF91CF910895CA
:101640002F923F924F925F926F927F928F929F92D2
:10165000AF92BF92CF92DF92EF92FF920F931F93C0
:10166000CF93DF935C013A0149017B01C0E0D0E0F8
:10167000C017D1070CF040C0CE01D7FD079623E07C
:10168000959587952A95E1F7889D2001899D500CB5
:10169000989D500C1124CE0168E070E00E94FA1D64
:1016A00022242394312C02C0220C331C8A95E2F7A9
:1016B00065014A185B08C6018A199B0988159905B6
:1016C000B4F4F201EC0DFD1DE60DF71DE491F0E020
:1016D000E221F321B701C601EF2B19F00E94E20AC3
:1016E00002C00E94BE0A8FEFC81AD80AE4CF219622
:1016F0008FEFE81AF80ABCCFDF91CF911F910F91BD
:10170000FF90EF90DF90CF90BF90AF909F908F9021
:101710007F906F905F904F903F902F9008952F9201
:101720003F924F925F926F927F928F929F92AF9271
:10173000BF92CF92DF92EF92FF920F931F93CF93BE
:10174000DF93CDB7DEB728970FB6F894DEBF0FBE94
:10175000CDBF78876F831A01FC0101900020E9F763
:1017600031979F01281B390B3A8329836F307742C9
:1017700079F44091990269817A81469F9001479F4F
:10178000300D1124E4E5F0E0E21BF30BF887EF8362
:101790002F8138852E303742D1F4409199026981EA
:1017A0007A81469F9001479F300D1124E4E5F0E0D7
:1017B000E21BF30BFC83EB83F7FF03C03196FC8342
:1017C000EB832B813C813595279538872F839E832A
:1017D0008D83612C712C49815A81641675060CF039
:1017E000F2C090919902969D6001979DD00C1124B2
:1017F0006F817885C60ED71EED81FE812191FE8313
:10180000ED8380919A02582F577030E040919B02EF
:1018100051116DC0869586958695241B3109989F38
:10182000C0011124289FA001299F500D389F500D01
:1018300011249A012C5F3F4F3C832B832101A12C63
:10184000B12C80919A0286958695869590E0A8168F
:10185000B9060CF0B4C08B809C80860180919902FF
:1018600090E098012C193D0928173907CCF5E12C97
:10187000F12C809199028A9DF0018B9DF00D11242D
:10188000E80DF91D8091970290919802E80FF91FD9
:10189000E491F0E00E2C02C0F595E7950A94E2F78A
:1018A00080919D02B701640D751DE0FF03C0811199
:1018B00003C006C0811104C0C8010E94BE0A03C053
:1018C000C8010E94E20A3FEFE31AF30A48E0E41677
:1018D000F10479F60F5F1F4F5FEF851A950ABECFAF
:1018E0006FEFA61AB60A78E0470E511CAACF241B48
:1018F0003109989FC001112443E0959587954A9539
:10190000E1F7289F4001299F900C389F900C1124EB
:1019100084E0880E911CE0919702F0919802E80D06
:10192000F91DE4914E2E512C860157E0A52EB12CC5
:101930008091990290E098012C193D0928173907E8
:101940000CF03DC0710180919A0290E0970122193C
:1019500033092817390784F520919D02C2010A2C0A
:1019600002C0959587950A94E2F7B70180FF04C0FD
:10197000C801211104C006C0C801211103C00E9482
:10198000BE0A02C00E94E20A91E0A91AB108B7FE9D
:101990000FC0EFEF8E1A9E0AE0919702F091980225
:1019A000E80DF91DE4914E2E512C87E0A82EB12CA4
:1019B000FFEFEF1AFF0AC7CF0F5F1F4FB9CF2FEF0F
:1019C000621A720A08CF28960FB6F894DEBF0FBECF
:1019D000CDBFDF91CF911F910F91FF90EF90DF90DE
:1019E000CF90BF90AF909F908F907F906F905F90BF
:1019F0004F903F902F900895A6E8B2E052969C93A6
:101A00008E935197FC01249153962C9353973196C2
:101A1000E4915496EC935497FC013296E4915596D8
:101A2000EC935597FC013396849156968C93569778
:101A300057961C9208953F924F925F926F927F92B9
:101A40008F929F92AF92BF92CF92DF92EF92FF92CE
:101A50000F931F93CF93DF93CDB7DEB7E8970FB601
:101A6000F894DEBF0FBECDBF2B013C015EAB4DAB8A
:101A700038AF2FAB611571058105910521F480E325
:101A800089831A825FC097FF0BC070946094509452
:101A90004094411C511C611C711C3324339401C0BF
:101AA000312C7E012CE1E20EF11C67018AE0882EC8
:101AB000912CA12CB12CC301B201A50194010E946B
:101AC000E21B20E3260FF60121936F018F010E190F
:101AD0001F09A3019201261B370B480B590BCA01A2
:101AE000B901A50194010E94E21B29013A01232BAF
:101AF000242B252B01F7F701E00FF11F1082332073
:101B000011F08DE28983E32DF0E0CF01800F911F6A
:101B1000D701A00FB11F41E050E04C0F5D1FE40F53
:101B2000F51FAE01455E5F4F11974A175B0719F02D
:101B30002C912193F9CFE1E0F0E0EC0FFD1FE80FCD
:101B4000F91F10824FA958AD6DA97EA9CE0101964B
:101B50000E948F0BE8960FB6F894DEBF0FBECDBF84
:101B6000DF91CF911F910F91FF90EF90DF90CF9079
:101B7000BF90AF909F908F907F906F905F904F90AD
:101B80003F9008950F931F938091310284FD18C0F8
:101B9000809132020E943C062091310223FB3327C0
:101BA00030F925FB222720F9232731E0892B09F082
:101BB00030E023278091300220FB80F980933002AF
:101BC0008091300280FF39C082FD37C081FD0EC098
:101BD0008260809330020E94D00660933D02709331
:101BE0003E0280933F02909340022CC00E94D00698
:101BF00000913D0210913E0220913F02309140023F
:101C0000AB01BC01401B510B620B730B8091330283
:101C100090913402A0E0B0E0481759076A077B07AB
:101C200088F08091300284608068809330028091D7
:101C3000310282608093310205C0809130028D7F35
:101C4000809330028091300280FD27C082FF4AC01D
:101C50008B7F8093300283FD05C080913B028F5FB4
:101C600080933B0280913002877F806480933002B2
:101C70000E94D00660933D0270933E0280933F0223
:101C800090934002809131028E7F8093310281FFD8
:101C900004C08D7F8460809331028091300282FF86
:101CA00021C080FF1FC00E94D00600913D0210910C
:101CB0003E0220913F0230914002AB01BC01401B2B
:101CC000510B620B730B8091350290913602A0E0AC
:101CD000B0E0481759076A077B0720F0809130026F
:101CE00083FF29C00E94D00600913D0210913E0260
:101CF00020913F0230914002AB01BC01401B510BCF
:101D0000620B730B8091370290913802A0E0B0E033
:101D1000481759076A077B0738F180913B028823EF
:101D200019F180933C0210923B0280913002806155
:101D30008093300219C010923B0210923C028860DE
:101D40008062809330028091310281608D7F809328
:101D500031020E94D00660933D0270933E02809350
:101D60003F0290934002BECF1F910F9108954F9272
:101D70005F926F927F928F929F92AF92BF92CF921B
:101D8000DF92EF92FF92CF93C82F809154028F3F42
:101D900009F064C080914B0291E09093000280931F
:101DA0002202109201021092230280914902909126
:101DB0004A02DC01ED91FC910190F081E02D6C2F45
:101DC00009958091490290914A020E94980843E047
:101DD00060914B028091490290914A020E944B0906
:101DE0008091490290914A02DC01ED91FC910284BC
:101DF000F385E02D09952C01990F66087708762C5C
:101E0000652C542C44248091490290914A02DC01B3
:101E1000ED91FC910284F385E02D09956C01990FF9
:101E2000EE08FF08C428D528E628F72888249C2C2B
:101E3000AD2CBE2C8091490290914A02DC01ED91BB
:101E4000FC910284F385E02D09956C01990FEE0851
:101E5000FF08C828D928EA28FB2833C080915702F8
:101E60008F3F21F482E591E00E94270760E0809196
:101E700054020E9465068C2F80680E94580880E0FA
:101E80000E945808C82ED12CE12CF12CFE2CED2CF0
:101E9000DC2CCC2480E00E945808C82AFE2CED2CB3
:101EA000DC2CCC2480E00E945808C82A61E0809194
:101EB00054020E946506809157028F3F11F40E94E0
:101EC0002607C701B601CF91FF90EF90DF90CF902A
:101ED000BF90AF909F908F907F906F905F904F904A
:101EE00008958F929F92AF92BF92CF92DF92EF921E
:101EF000FF920F931F938AEF0E94B70E6115710531
:101F000020E88207910509F479C0009158021091E8
:101F1000590220E030E0C72ED82EE92EFF24E7FC3E
:101F2000FA94C01AD10AE20AF30ADC01CB0157E0A5
:101F3000B595A795979587955A95D1F7000F111FDD
:101F4000221F331F4C015D01801A910AA20AB30AB5
:101F5000A5019401A0915A02B0915B020E940C1C51
:101F60004B015C017BE0B594A794979487947A9594
:101F7000D1F7A7019601C701B6010E94EA1D9B0196
:101F8000AC01ECE05595479537952795EA95D1F743
:101F9000A0915C02B0915D020E940C1CDC01CB019F
:101FA000FEE0B595A79597958795FA95D1F7A50188
:101FB0009401280F391F4A1F5B1F20935002309352
:101FC00051024093520250935302A5E0B0E00E94A8
:101FD000011CDC01CB0180589F4FAF4FBF4F692FD1
:101FE0007A2F8B2F992787FD9A950E94C51A20E09A
:101FF00030E048EC52E40E94E91C04C060E070E06C
:1020000080EC9FE71F910F91FF90EF90DF90CF90B2
:10201000BF90AF909F908F90089560E080917D0277
:102020000E94940661E080917C020E946506809186
:102030007D020E943C060197D1F360E080917C0212
:102040000C946506EF92FF920F931F93CF93DF934B
:10205000E82EF62EC7E0D0E0042F10E0B8010C2ED9
:1020600002C0759567950A94E2F761708E2D0E9403
:10207000650661E08F2D0E94650660E08F2D0E944D
:102080006506219758F7DF91CF911F910F91FF902F
:10209000EF9008951F93CF93DF93182FCCE7D2E0F2
:1020A00061E089810E94940661E089810E94650651
:1020B00061E088810E94650660E089810E94650672
:1020C00060E088810E946506412F68818981DF91E7
:1020D000CF911F910C942210CF93DF93CDB7DEB731
:1020E0006E970FB6F894DEBF0FBECDBF789484B55F
:1020F000826084BD84B5816084BD85B5826085BD04
:1021000085B5816085BD80916E00816080936E0091
:102110001092810080918100826080938100809183
:102120008100816080938100809180008160809334
:1021300080008091B10084608093B1008091B000F4
:1021400081608093B00080917A00846080937A00EF
:1021500080917A00826080937A0080917A00816019
:1021600080937A0080917A00806880937A00109240
:10217000C10061E083E00E94940690919202E09198
:102180008A02F0918B028081892B80839091910249
:10219000E0918802F09189028081892B808390915F
:1021A0009002E0918602F09187028081892B8083E2
:1021B00090919402E0918E02F0918F028081892BA0
:1021C000808380919302E0918C02F0918D02908146
:1021D0008095892380836AE070E080E090E00E942F
:1021E000420590919302E0918C02F0918D028081E2
:1021F000892B808360E081E20E946F0A60E086ECB8
:102200000E946F0A60E086E00E946F0A60E083E14E
:102210000E946F0A60E080E20E946F0A60E080E442
:102220000E946F0A60E080E80E946F0A60E08CE024
:102230000E946F0AEEE9F2E0119226E934E02E17CF
:102240003F07D1F70E94050B109298021092970257
:102250001092960486E490E09093980480939704FB
:1022600000E310E024E530E04EE950E060E070E08B
:1022700080E090E00E94200B0E94050B86E780938F
:102280004B0284E292E090934A028093490280914B
:1022900054028F3FA1F51092B8011092B70110922D
:1022A0000102109223021092FF0181E08093FE014F
:1022B0001092D90161E082E10E94650661E083E14C
:1022C0000E9465068091B9008E7F8093B90080914D
:1022D000B9008D7F8093B90088E48093B80085E4CD
:1022E0008093BC0088EC94E090939C0180939B01C8
:1022F00089EC94E090939A018093990150C061E039
:102300000E94650661E0809154020E9494068091CB
:1023100057028F3F09F036C03FB73983F894809158
:102320009801811127C0EFE2F9E08491E1E1F9E041
:102330009491E82FF0E0EE0FFF1FEC56FF4FA591B0
:10234000B491EC91E92321F461E08AE00E946506F2
:1023500061E08AE00E9494068CB580618CBD8CB5EA
:1023600080648CBD61E08DE00E94940661E08BE0AA
:102370000E949406809198018F5F80939801498113
:102380004FBF0DC061E00E94940661E0809155024C
:102390000E94940660E0809156020E94940680EDAF
:1023A0000E949409803609F0F5C066EB80EE0E9429
:1023B000F4086CE271E080E090E00E94420583EF57
:1023C0000E94940980FF05C064E670E080E090E020
:1023D000F4CF88E80E94690A9093590280935802CA
:1023E0008AE80E94690A90935B0280935A028CE803
:1023F0000E94690A90935D0280935C028EE80E94BD
:10240000690A90935F0280935E0280E90E94690AE4
:10241000909361028093600282E90E94690A90931E
:1024200063028093620284E90E94690A90936502C4
:102430008093640286E90E94690A90936702809300
:10244000660288E90E94690A909369028093680293
:102450008AE90E94690A90936B0280936A028CE970
:102460000E94690A90936D0280936C028EE90E942B
:10247000690A90936F0280936E0281EA0E94940928
:102480008093700281EE0E94690A90937202809399
:10249000710283EE0E9494098093730284EE0E947D
:1024A0009409898385EE0E949409998150E1959F52
:1024B000900111248F70282B3093750220937402A1
:1024C00086EE0E949409898385EE0E949409B98161
:1024D000A0E1BA9F9001112490E044E09595879582
:1024E0004A95E1F7822B932B9093770280937602A3
:1024F00087EE0E949409809378028DEE80937A0291
:1025000080917B028F71806A80937B028091790237
:10251000807C8093790265E082EF0E94F4089091BC
:102520007902692F6770E0E26E9F90011124892F74
:102530008695869586958770F4E08F9FB00111246B
:10254000622B732B97FB992790F9692B85EF0E94DB
:10255000F40890917A02692F677040E2649F9001BD
:102560001124892F869586958695877054E0859FDE
:10257000B0011124622B732B9295969596959370CA
:10258000692B84EF0E94F40864E670E080E090E03C
:102590000E94420580917D02823101F580917C028A
:1025A0008331E1F481E08093850261E082E10E9461
:1025B000650661E083E10E9465068091B9008E7F27
:1025C0008093B9008091B9008D7F8093B9008CE031
:1025D0008093B80085E08093BC0007C0109285020C
:1025E00061E080917C020E94940660ED77E080E0DB
:1025F00090E00E94420580918502882309F447C03B
:1026000084EE8093BC008091BC0087FFFCCF80EDFE
:102610008093BB0084EC8093BC008091BC0087FF5A
:10262000FCCF1092BB0094EC9093BC008091BC0056
:1026300087FFFCCF84EE8093BC008091BC0087FFB5
:10264000FCCF81ED8093BB00A4ECA093BC008091F3
:10265000BC0087FFFCCFEEE7F2E0B4ECB093BC0027
:102660008091BC0087FFFCCF8091BB00819325E85F
:1026700032E02E173F0789F784E88093BC008091F1
:10268000BC0087FFFCCF84E98093BC008FC080ED45
:102690000E944A100E940D1061E080917D020E940C
:1026A000940640E060917C0280917D020E9422109D
:1026B0000E940D1081ED0E944A100E940D100EE73D
:1026C000E02E02E0F02E1A82198260E080917D02F5
:1026D0000E94940607E010E0D12C61E080917C021A
:1026E0000E94650680917D020E943C069927002E7B
:1026F00001C0880F0A94EAF7D82A60E080917C0232
:102700000E9465060150110940F7D701DD927D0155
:10271000E981FA8161E080917D02369749F00E945B
:10272000940660E080917C020E94650660E008C02B
:102730000E94940660E080917C020E94650661E040
:1027400080917D020E94650661E080917C020E947A
:10275000650660E080917C020E94650660E08091E1
:102760007D020E94940629813A812F5F3F4F3A8370
:1027700029832730310509F0A8CF61E080917D02DF
:102780000E94940660E080917D020E94650661E0EF
:1027900080917C020E94650661E080917D020E942A
:1027A000650660E080917D020E94940680917E0221
:1027B000582F5695569556955E70952F990F990FEF
:1027C000590F8F70580F80917F02682F669566951C
:1027D00066956E70962F990F990F690F8F70680F1D
:1027E00080918002282F2F7087FF09C085FB9927D1
:1027F00090F9822F3CE0939F800D112409C08073D3
:10280000869586958695982F990F990F890F820F37
:102810003091810240918202209183029091840242
:10282000809341026093420250934302842F869525
:10283000869586958E70582F550F550F850F4F70C2
:10284000480F40934402822F8695869586958E7018
:10285000482F440F440F840F2F70280F20934502F8
:10286000292F22952F70892F8F704AE0249F800D89
:10287000112490E08053984F909347028093460232
:10288000309348020E94710F87EF0E94B70E6B874A
:102890007C878D879E87611571058048910509F4B5
:1028A000A6C18091500290915102A0915202B09124
:1028B00053026C017D01FF0CCC08DC2C76019C01DD
:1028C000AD016C2D7C2D8C2D9C2D345F4140510928
:1028D00061097109810991092E8F3D8F49835D83BB
:1028E0006E837F838887998759016A017B018C01F8
:1028F0000E94141E2A873E8B4F8B588F698F7A8FC8
:102900008B8F9C8F3091610220916002932F990FE1
:10291000990B492F592F692F792F892F0E94141E47
:102920000CE00E940D1F19012A013B014C0130915E
:10293000630220916202932F990F990BAA84BE889B
:10294000CF88D88CE98CFA8C0B8D1C8D492F592F90
:10295000692F792F892F0E94141E08E00E94261FDC
:1029600051016201730184010E94441F70588F4F0E
:102970009F4FA0905E02B0905F02C12CD12CE12C41
:10298000F12C00E010E00E94141E01E20E94261FBC
:102990002F87388B498B5A8B6B8B7C8B8D8B692E59
:1029A000A0E00E94561F09F427C1309169022091CE
:1029B0006802932F990F990BAA84BE88CF88D88C70
:1029C000E98CFA8C0B8D1C8D492F592F692F792F8B
:1029D000892F0E94141E19012A016A87772E4C0143
:1029E0003091670220916602932F990F990BAE8C5C
:1029F000BD8CC980DD80EE80FF8008851985492F58
:102A0000592F692F792F892F0E94141E01E10E94EE
:102A10000D1F51016201EA84F72C84010E94441FBA
:102A200059016A017B01782E192F8B859C85AD8514
:102A3000BE8524E0B595A795979587952A95D1F7FA
:102A400020E030E040E150E0281B390B4A0B5B0BE3
:102A5000DA01C90119012A01550C2208322C210181
:102A60009C01AD01622D722D822D922D0FE10E94ED
:102A70000D1F49014D835983B62FA72FF82FE92F3A
:102A80003091650220916402932F990F990B492F81
:102A9000592F692F792F892F03E20E940D1F072DCF
:102AA0000E94441F59016A017B018C0194014D81F0
:102AB00059816B2F7A2F8F2F9E2F0E944D1FE5E398
:102AC000AE2EFCE0BF2EC12CD12CE12CF12C00E06D
:102AD00010E00E94141EAF84B888C988DA88EB8899
:102AE000FC880D89162D0E946F1E922E232E49837D
:102AF0005D836E837F83888799870DE00E94261F00
:102B0000322E3B874A87452E562E672E782E892EE9
:102B100030916F0220916E02932F990F990BA32C85
:102B2000BB84C42ED42CE52CF62C072D182D492F50
:102B3000592F692F792F892F0E94141E0E94141E6D
:102B400009E10E94261FA92CB22CC980DD80EE80ED
:102B5000FF80088519850E94441F322E432E542E73
:102B6000652E762E872E8B879A8730916D02209165
:102B70006C02932F990F990B492F592F692F792F99
:102B8000892F0E94141E03E10E94261F59016A0129
:102B90007B018C01232D342D452D562D672D782D4D
:102BA0008B859A850E94441F08E00E94261F5901C8
:102BB0006A017B01E82F192F30916B0220916A0284
:102BC000932F990F990B492F592F692F792F892FFF
:102BD00004E00E940D1F0E2F0E94441F0E94911DB1
:102BE00020E030E040E85BE30E94241B08C060E086
:102BF00070E080EC9FE703C060E070E0CB012FE65F
:102C000032E545E053E40E94E91C6093B301709300
:102C1000B4018093B5019093B6010E94710F20E03A
:102C200030E040E85FE30E947C1C6093AF0170934A
:102C3000B0018093B1019093B2010E94710F8DEFAA
:102C40000E94F0096C01E12CF12CC11430E8D3068C
:102C5000E104F10409F4D7C04090500250905102B1
:102C600060905202709053024CE2541A41E0640AA0
:102C700071083EE0CC0CDD1CEE1CFF1C3A95D1F730
:102C80002091740230917502C901330FAA0BBB0B5E
:102C900044E1880F991FAA1FBB1F4A95D1F7C81A94
:102CA000D90AEA0AFB0AA0917602B0917702A30141
:102CB00092010E940C1CC61AD70AE80AF90A50E4CD
:102CC000D50EE11CF11C5FE0F594E794D794C7940E
:102CD0005A95D1F7A0917302B0E0A30192010E942E
:102CE000011C4B015C016BE0B594A7949794879409
:102CF0006A95D1F780E8980EA11CB11CA0917802CA
:102D00000A2E000CBB0B0E940C1CEAE095958795DF
:102D100077956795EA95D1F7A50194010E94EA1D80
:102D2000DC01CB01FAE0B595A79597958795FA95C3
:102D3000D1F79C01AD01405E5F4FA0917102B0914F
:102D400072020E940C1CDC01CB01905EAF4FBF4FA2
:102D5000BC01CD01AEE09595879577956795AA95CD
:102D6000D1F7A70196010E94EA1D6B017C01BFE02B
:102D70009595879577956795BA95D1F79B01AC01A5
:102D80000E94EA1D9B01AC0117E0559547953795C8
:102D900027951A95D1F7A0917002B0E00E94011C0E
:102DA000DC01CB0104E0B595A795979587950A9529
:102DB000D1F7C81AD90AEA0AFB0AF7FE03C0C12CE8
:102DC000D12C7601D701C601E1E0CE16D104E10491
:102DD000E9E1FE0624F080E090E0A0E0B9E1BC016A
:102DE000CD012CE095958795779567952A95D1F734
:102DF0000E94C51A20E030E040E85AE30E94241BFC
:102E00004B015C0106C0812C912C80ECA82E8FE731
:102E1000B82E8092AB019092AC01A092AD01B0921D
:102E2000AE010E94C20D8091310286FD0E94C20D4A
:102E30008091300287FF12C08F778093300280919B
:102E4000AA0181110BC081E08093AA016091A901C0
:102E500068276093A90183E00E9465068091310292
:102E600086FD0E94C20D8091300286FF08C08F7BD4
:102E7000809330028091AA0181111092AA01EEE99B
:102E8000F2E0119226E934E02E173F07D1F7C09007
:102E9000B301D090B401E090B501F090B60120E00C
:102EA00030E846E354E4C701B6010E94E51D87FD02
:102EB00022C020E030E84BE354E4C701B6010E9491
:102EC000BE1A87FF18C004E110E024E130E045EDB0
:102ED00058E06EE170E08FE390E00E94200B87E9FC
:102EE00096E00E94FC0C44E150E06FE077E288E15C
:102EF00091E00E948F0B20E030E84BE354E4C701DF
:102F0000B6010E94E51D87FD22C020E030E04EE3BF
:102F100054E4C701B6010E94BE1A87FF18C004E13D
:102F200010E02EE130E04CE456E06EE170E085E325
:102F300090E00E94200B87E996E00E94FC0C44E19F
:102F400050E06FE077E28FE191E00E948F0B20E08C
:102F500030E04EE354E4C701B6010E94E51D87FD51
:102F600022C020E030E043E454E4C701B6010E94EF
:102F7000BE1A1816C4F087E996E00E94FC0C44E1E2
:102F800050E06FE077E286E291E00E948F0B06E16D
:102F900010E026E130E040E156E06EE170E08FE3C2
:102FA00090E00E94200B82ED93E00E94FC0C40E038
:102FB00050E06FE077E285E391E00E948F0B46E2FC
:102FC00050E064E270E08BE291E00E948F0B40E001
:102FD00050E06CE170E08EE291E00E948F0B409037
:102FE000A5015090A6016090A7017090A8012DEC5A
:102FF0003CEC4CE45EE3C301B2010E947C1C9B01EB
:10300000AC01C701B6010E94BE1A2091AF013091F8
:10301000B0014091B1015091B20129833A834B83B1
:103020005C8387FD5FC02DEC3CEC4CE45EE3C301A8
:10303000B2010E947D1C9B01AC01C701B6010E9438
:10304000E51D18160CF44EC04090A1015090A2014D
:103050006090A3017090A4012DEC3CEC4CEC5DE37E
:10306000C301B2010E947C1C29813A814B815C81A1
:103070000E94E51D1816B4F12DEC3CEC4CEC5DE320
:10308000C301B2010E947D1C9B01AC0169817A8160
:103090008B819C810E94E51D181624F140909D01B2
:1030A00050909E0160909F017090A00120E030E060
:1030B00040E85FE3C301B2010E947D1CA5019401B9
:1030C0000E94BE1A87FD0EC020E030E040E85FE3BA
:1030D000C301B2010E947C1CA50194010E94E51D60
:1030E0001816E4F4C092A501D092A601E092A701BF
:1030F000F092A80189819A81AB81BC818093A10162
:103100009093A201A093A301B093A40180929D018A
:1031100090929E01A0929F01B092A00186E992E058
:103120000E94FC0C6091AF017091B0018091B101DF
:103130009091B2010E945B1D20E030E042E350E03C
:103140000E941B0DC501B4010E945B1D20E030E010
:1031500040E050E00E941B0DC701B6010E945B1DBC
:103160002EE130E040E050E00E941B0D82ED93E044
:103170000E94FC0C6091410270E080E090E024E14C
:1031800030E040E050E00E941B0D609141026A3047
:1031900090F444E150E060E070E080E391E00E9450
:1031A0008F0B6091410270E080E090E024E130E01C
:1031B00046E050E007C070E080E090E024E130E0BD
:1031C00040E050E00E941B0D44E150E06CE070E0F4
:1031D00082E391E00E948F0B609142026A3090F48A
:1031E00044E150E061E170E080E391E00E948F0BE8
:1031F0006091420270E080E090E024E130E047E13D
:1032000050E007C070E080E090E024E130E041E170
:1032100050E00E941B0D87E996E00E94FC0C44E1FF
:1032200050E06FE170E080910001909101010E94F7
:103230008F0B0E94050B62E370E080E090E00E943B
:103240004205E09148028E2F90E08730910568F5A5
:10325000FC01EC5CFF4F0C940E1E84E391E021C056
:1032600087E391E01EC0AAE3B1E0B0930101A0930F
:1032700000011BC0EDE3F1E0F0930101E0930001D8
:1032800014C020E431E030930101209300010DC00F
:1032900043E451E0509301014093000106C086E4ED
:1032A00091E0909301018093000180E090E0892BF0
:1032B00009F4A1C90E9400009EC9CF93DF93E4E204
:1032C000F2E01382128288EE93E0A0E0B0E0848303
:1032D0009583A683B7838AE091E091838083E2E3BC
:1032E000F9E0E491F0E0EE0FFF1FE55EF64F859107
:1032F0009491C6E8D2E099838883E4E1F9E0E4910F
:10330000EA87E0E3F9E0E491F0E0EE0FFF1FE55E0D
:10331000F64F859194919B838A83E2E1F9E0E491F1
:10332000EB87EDE2F9E0E491F0E0EE0FFF1FE55EE0
:10333000F64F859194919D838C83EFE0F9E0E491C1
:10334000EC87EFE2F9E0E491F0E0EE0FFF1FE55EBD
:10335000F64F859194919F838E83E1E1F9E0E491AA
:10336000ED87EEE2F9E0E491F0E0EE0FFF1FE55E9D
:10337000F64F8591949199878887E0E1F9E0E4918F
:10338000EE8761E08DE00E94940661E08BE00E9490
:10339000940661E088E00E94940661E08AE00E9461
:1033A000940661E089E00E9494068DE08F878AE0B0
:1033B000888BECE7F2E082E1818383E18083E9E4BA
:1033C000F2E08FEF8387848785878687E1E4F2E0E8
:1033D0008EED97E09683858381E0848383831082DA
:1033E0001182128283E08783E0E3F2E01386148681
:1033F000158616861786108A84E082838CE390E017
:103400009483838384EF91E09683858380E991E0C0
:10341000928781878CE291E090878783E1E3F2E0F5
:103420008081877C8F7B808362E084E00E949406A9
:10343000DF91CF910C94671A8F929F92AF92BF92B7
:10344000CF92DF92EF92FF92CF93DF93EC016881EE
:1034500079818A819B81611571058105910521F42E
:1034600064E279ED8BE597E02DE133EF41E050E048
:103470000E94E21B49015A019B01AC01A7EAB1E499
:103480000E94011C6B017C01ACEEB4EFA50194011C
:103490000E940F1CDC01CB018C0D9D1DAE1DBF1DBC
:1034A000B7FF03C00197A109B04888839983AA8315
:1034B000BB83BC01CD019F77DF91CF91FF90EF904F
:1034C000DF90CF90BF90AF909F908F9008958F9294
:1034D0009F92AF92BF92CF92DF92EF92FF92609154
:1034E0000201709103018091040190910501611521
:1034F00071058105910521F464E279ED8BE597E092
:103500002DE133EF41E050E00E94E21B49015A01F6
:103510009B01AC01A7EAB1E40E94011C6B017C0194
:10352000ACEEB4EFA50194010E940F1CDC01CB01AD
:103530008C0D9D1DAE1DBF1DB7FF03C00197A109D6
:10354000B0488093020190930301A0930401B093CB
:103550000501BC01CD019F77FF90EF90DF90CF90E8
:10356000BF90AF909F908F900895609302017093E9
:103570000301809304019093050108950E94001BAC
:1035800008F481E00895E89409C097FB3EF4909513
:103590008095709561957F4F8F4F9F4F9923A9F02C
:1035A000F92F96E9BB279395F695879577956795BB
:1035B000B795F111F8CFFAF4BB0F11F460FF1BC0FF
:1035C0006F5F7F4F8F4F9F4F16C0882311F096E992
:1035D00011C0772321F09EE8872F762F05C0662340
:1035E00071F096E8862F70E060E02AF09A95660FF9
:1035F000771F881FDAF7880F9695879597F90895B2
:10360000990F0008550FAA0BE0E8FEEF16161706F3
:10361000E807F907C0F012161306E407F50798F05B
:10362000621B730B840B950B39F40A2661F0232B74
:10363000242B252B21F408950A2609F4A140A695F0
:103640008FEF811D811D08950E94371B0C94A81BCC
:103650000E949A1B38F00E94A11B20F0952311F0C4
:103660000C94911B0C94971B11240C94DC1B0E944E
:10367000B91B70F3959FC1F3950F50E0551F629FE2
:10368000F001729FBB27F00DB11D639FAA27F00DBB
:10369000B11DAA1F649F6627B00DA11D661F829FE2
:1036A0002227B00DA11D621F739FB00DA11D621FC7
:1036B000839FA00D611D221F749F3327A00D611DE4
:1036C000231F849F600D211D822F762F6A2F1124C6
:1036D0009F5750409AF0F1F088234AF0EE0FFF1FF9
:1036E000BB1F661F771F881F91505040A9F79E3F50
:1036F000510580F00C94911B0C94DC1B5F3FE4F3AC
:10370000983ED4F3869577956795B795F795E795A5
:103710009F5FC1F7FE2B880F911D9695879597F9AE
:10372000089597F99F6780E870E060E008959FEF43
:1037300080EC089500240A94161617061806090648
:10374000089500240A941216130614060506089517
:10375000092E0394000C11F4882352F0BB0F40F49F
:10376000BF2B11F460FF04C06F5F7F4F8F4F9F4FDF
:10377000089557FD9058440F551F59F05F3F71F061
:103780004795880F97FB991F61F09F3F79F08795C8
:103790000895121613061406551FF2CF4695F1DF51
:1037A00008C0161617061806991FF1CF86957105E1
:1037B000610508940895E894BB2766277727CB0115
:1037C00097F90895052E97FB1EF400940E94F91BAB
:1037D00057FD07D00E944B1C07FC03D04EF40C94FD
:1037E000F91B50954095309521953F4F4F4F5F4FB6
:1037F000089590958095709561957F4F8F4F9F4F5D
:1038000008950E946D1CA59F900DB49F900DA49FDC
:10381000800D911D11240895B7FF0C94011C0E9486
:10382000011C821B930B08952F923F924F925F923F
:103830006F927F928F929F92AF92BF92CF92DF92C0
:10384000EF92FF920F931F93CF93DF93CDB7DEB725
:10385000CA1BDB0B0FB6F894DEBF0FBECDBF0994B9
:103860002A88398848885F846E847D848C849B8410
:10387000AA84B984C884DF80EE80FD800C811B811E
:10388000AA81B981CE0FD11D0FB6F894DEBF0FBE4D
:10389000CDBFED010895A1E21A2EAA1BBB1BFD01AD
:1038A0000DC0AA1FBB1FEE1FFF1FA217B307E4071F
:1038B000F50720F0A21BB30BE40BF50B661F771F77
:1038C000881F991F1A9469F7609570958095909557
:1038D0009B01AC01BD01CF010895A29FB001B39F30
:1038E000C001A39F700D811D1124911DB29F700D09
:1038F000811D1124911D08955058BB27AA270E94AD
:10390000941C0C94A81B0E949A1B38F00E94A11BC7
:1039100020F039F49F3F19F426F40C94971B0EF411
:10392000E095E7FB0C94911BE92F0E94B91B58F31B
:10393000BA17620773078407950720F079F4A6F594
:103940000C94DB1B0EF4E0950B2EBA2FA02D0B016F
:10395000B90190010C01CA01A0011124FF27591BD4
:1039600099F0593F50F4503E68F11A16F040A22FDA
:10397000232F342F4427585FF3CF4695379527954B
:10398000A795F0405395C9F77EF41F16BA0B620B4A
:10399000730B840BBAF09150A1F0FF0FBB1F661F91
:1039A000771F881FC2F70EC0BA0F621F731F841FD4
:1039B00048F4879577956795B795F7959E3F08F0FA
:1039C000B0CF9395880F08F09927EE0F97958795BC
:1039D00008950E94FD1C0C94A81B0E94A11B58F086
:1039E0000E949A1B40F029F45F3F29F00C94911B30
:1039F00051110C94DC1B0C94971B0E94B91B68F3AB
:103A00009923B1F3552391F3951B550BBB27AA2797
:103A100062177307840738F09F5F5F4F220F331FD1
:103A2000441FAA1FA9F335D00E2E3AF0E0E832D099
:103A300091505040E695001CCAF72BD0FE2F29D09C
:103A4000660F771F881FBB1F261737074807AB076E
:103A5000B0E809F0BB0B802DBF01FF2793585F4FE3
:103A60003AF09E3F510578F00C94911B0C94DC1BAE
:103A70005F3FE4F3983ED4F3869577956795B795C5
:103A8000F7959F5FC9F7880F911D9695879597F9D0
:103A90000895E1E0660F771F881FBB1F6217730749
:103AA0008407BA0720F0621B730B840BBA0BEE1F5E
:103AB00088F7E09508950E94621D6894B1110C94F6
:103AC000DC1B08950E94C11B88F09F5798F0B92F06
:103AD0009927B751B0F0E1F0660F771F881F991F43
:103AE0001AF0BA95C9F714C0B13091F00E94DB1BEF
:103AF000B1E008950C94DB1B672F782F8827B85FFF
:103B000039F0B93FCCF3869577956795B395D9F79A
:103B10003EF490958095709561957F4F8F4F9F4FA4
:103B2000089597FB16F40E94D51D0C94981DE894F7
:103B3000F92F96EBFF2381F0121613061406440B9F
:103B40009395F69587957795679557954040FF2310
:103B5000B9F71BC099270895882351F49850D2F7DC
:103B6000872B762F652F542F432F322F20E0B1F370
:103B7000121613061406440B88233AF09A95440F44
:103B8000551F661F771F881FCAF755234AF4440F35
:103B9000551F11F460FF04C06F5F7F4F8F4F9F4F21
:103BA000880F9695879597F90895909580957095CB
:103BB000609550954095309521953F4F4F4F5F4F01
:103BC0006F4F7F4F8F4F9F4F08950E94001B08F447
:103BD0008FEF0895DB018F939F930E94011CBF918B
:103BE000AF91A29F800D911DA39F900DB29F900D4C
:103BF0001124089597FB072E16F4009407D077FD43
:103C000009D00E94621F07FC05D03EF49095819573
:103C10009F4F0895709561957F4F0895EE0FFF1F98
:103C20000590F491E02D0994DF93CF931F930F93A8
:103C30009A9DF02D219FF00D8B9DF00D8A9DE02D1A
:103C4000F10D039FF00D029FE00DF11D4E9DE00D63
:103C5000F11D5E9DF00D4F9DF00D7F936F93BF9210
:103C6000AF925F934F93D5010E946D1C8B01AC0105
:103C7000D7010E946D1CEB01E80FF91FD6010E94CD
:103C8000641E2F913F91D6010E946D1CC60FD71F55
:103C9000E81FF91FAF91BF910E94641E2F913F91C1
:103CA0000E946D1CC60FD71FE81FF91FD6010E9486
:103CB0006D1CE60FF71F9801BE01CF0111240F9173
:103CC0001F91CF91DF9108950E946D1C460F571FE1
:103CD000C81FD91F08F431960895689401C0E8946C
:103CE000F92FF12B12F00C94A11EA0E0B0E0EBE74D
:103CF000FEE10C941A1C092E059422F40E94FD1E6C
:103D0000112392F4F0E80F26FFEFE094F094009571
:103D10001095B094C094D094A194BF0ACF0ADF0A42
:103D2000EF0AFF0A0F0B1F0B0E94AC1E07FC0E943C
:103D3000FD1ECDB7DEB7ECE00C94361C689401C0D4
:103D4000E8948F929F92CF93DF930E94AC1EDF91F5
:103D5000CF919F908F90089588249924F401E401D5
:103D6000B0E49F93AA279A158B049C04ED05FE05E9
:103D7000CF05D007A10798F4AD2FDC2FCF2FFE2F52
:103D8000E92D982C892E982F872F762F652F542F69
:103D9000432F322F2227B85031F7BF9127C01B2E57
:103DA000BF91BB27220F331F441F551F661F771F6C
:103DB000881F991F881C991CEE1FFF1FCC1FDD1F39
:103DC000AA1FBB1F8A149B04EC05FD05CE05DF0569
:103DD000A007B10748F08A189B08EC09FD09CE0935
:103DE000DF09A00BB10B21601A94E1F62EF49401C7
:103DF000AF01BE01CD01000C0895609570958095CE
:103E0000909530954095509521953F4F4F4F5F4F7E
:103E10006F4F7F4F8F4F9F4F08950F93083090F053
:103E2000982F872F762F652F542F432F322F22273D
:103E30000850F4CF220F331F441F551F661F771FF2
:103E4000881F991F0A95B2F70F91089597FB10F8F4
:103E5000169400080F93083098F00850232F342F41
:103E6000452F562F672F782F892F902DF4CF05944B
:103E700097958795779567955795479537952795A2
:103E80000A95AAF70F9108952A0D3B1D4C1D5D1D43
:103E90006E1D7F1D801F911F08952A193B094C0933
:103EA0005D096E097F09800B910B08950024A7FD21
:103EB00000942A17300540055005600570058005FF
:103EC00090050895AA1BBB1B51E107C0AA1FBB1F89
:103ED000A617B70710F0A61BB70B881F991F5A9596
:103EE000A9F780959095BC01CD01089581E090E0FF
:0A3EF000F8940C947B1FF894FFCFA8
:103EFA00490101000000000000000706DA05370644
:103F0A00AE05D205BE05AF054A63666C7262004A09
:103F1A002C6B667266005A63796A006D6D00250023
:103F2A0030003A00444300475900444E00434800D9
:0C3F3A00584E00474E00433C0020200081
:00000001FF
